:100D2500D3EF9400EE9400400B7D6EDDFEEF1F7057
:040D3500EF1E80EC41
:010D39002297
:100CDB00C2A77C46AF041CEF70FAE4FCD2A730A786
:100CEB00117F017E00120D250CECD3940540EF7F94
:040CFB0000227F0153
:010CFF0022D2
:0C0CAC00120CDB7F017E00120D257FCCB6
:100CB800E4FEC2A77D03AC051DEC70FAEF1392A702
:100CC8007D06AC051DEC70FAD2A7EFC313FF0EBE6C
:020CD80008E032
:010CDA0022F7
:100D0000E4FDC2A7D2A7A2A7E433C433333354808F
:100D1000FCEEC3134CFE7F06AC071FEC70FA0DBD52
:040D200008E0AF0632
:010D240022AC
:080D7900120CAC7F44020CB81F
:080D8100120CAC7FBE020CB89D
:100D3A00120D79120D81120D00AB07120D00EFFE94
:020D4A00EBFFBD
:010D4C002284
:0A0D6F003F065B4F666D7D077F6F46
:0B0D5900EF1FAC0670011E4C70F6226C
:040B5600AB07AA0639
:100B5A00C3EA648094805010750840EB1B70011A38
:100B6A006303FF6302FF8003E4F508AD03AC02EC04
:100B7A00120A038F138E128D118C10E4FFFE7D7AF8
:100B8A007C42AB13AA12A911A8101208F8E4FBFAC6
:100B9A00F9783F120807120A3CAA06AB077C277DA0
:100BAA0010AF03AE02120ABD746F2FF582740D3EA8
:100BBA00F583E493F5097C277D10AF03AE02120A90
:100BCA00BD7E037FE8CFCDCFCECCCE120ABD746FE7
:100BDA002FF582740D3EF583E493F50A7C277D1088
:100BEA00AF03AE02120ABD7E037FE8CFCDCFCECCD3
:100BFA00CE120ABD7E007F64CFCDCFCECCCE120AF4
:100C0A00BD746F2FF582740D3EF583E4934480F52D
:100C1A000B7C007D64AF03AE02120ABD7E007F0A20
:100C2A00CFCDCFCECCCE120ABD746F2FF582740D04
:100C3A003EF583E493F50CAE02AF037C007D0A1205
:100C4A000ABD746F2DF582740D3CF583E493F50D9E
:010C5A002277
:100C5B00E4FDED14601414601914601A14601F1471
:100C6B00602024057022C2A28002D2A2C2A3C2A419
:100C7B008016C2A28002D2A2D2A3C2A4800AC2A2B0
:100C8B008002D2A2C2A3D2A4C374059D2408F8E6A5
:100C9B00F5807F647E00120D59E4F5800DBD06B220
:010CAB002226
:0B0D6400120D3A120B56120C5B80F5CA
:10080000020AA8E86480F8E933E83360110460F074
:10081000ED33EC337009E8FCE9FDEAFEEBFF22045E
:1008200060DED3EB9FEA9EE99DE8C2E78CF0C2F759
:1008300095F0400CE8CCF8E9CDF9EACEFAEBCFFB25
:10084000120A7385D0F05804700320D5B3E8047001
:10085000075002B2D5020AB292D5EC0460F7E4CC9C
:10086000C0E0C398F8603B94186008400DD0E0FBEE
:10087000020A8AE4FBFAC9FC8028E830E406E4C9ED
:10088000FBE4CAFCE830E305E4C9CACBFCE8540742
:100890006010F8C3E913F9EA13FAEB13FBEC13FC4D
:1008A000D8F130F52FC3E49CFCEF9BFFEE9AFEEDF0
:1008B00099FDD0E0FBEF4E4D4C701222DB03020A93
:1008C000AFEC2CFCEF33FFEE33FEED33FDED30E704
:1008D000EB020A8AEF2BFFEE3AFEED39FDD0E0FB8A
:1008E00050130BBB0003020AB2ED13FDEE13FEEF33
:0808F00013FFEC13FC020A8A5D
:1008F800EC4D6011E8497017ED33EC3304600DE4FA
:10090800FCFFFEFD22E933E8330470F8020AA8125E
:100918000A7358046009E4CC24815006285009025F
:100928000AB2284003020AAFC0E0EB4A7044B9801B
:1009380006D0E0FB020A9EEF4E701CBD8008EBFF5C
:10094800EAFEE9FD80EBE98DF0A4FEE5F00209E19D
:10095800E9CDF9EAFEEBFFEF89F0A4FCE5F0CE89DA
:10096800F0A42EFFE435F0CD89F0A42DFEE435F097
:100978008067EF4E7005BD80D780C3EF8BF0A4ACC5
:10098800F0EE8BF0A42CFCE435F0F8EF8AF0A42C00
:10099800E5F038FCE433CB8DF0A42CFCE5F03BF813
:1009A800EE8AF0A42CFCE5F038F8E433CF89F0A403
:1009B8002CFCE5F038CF3400CE89F0A42FFFE5F009
:1009C8003EFEE433C98DF0A42EFEE5F039CD8AF061
:1009D800A42FFFE5F03EFEE43DFD33D0E0FB5007D9
:1009E8000BBB000F020AB2EC2CFCEF33FFEE33FE18
:0609F800ED33FD020A8A46
:1009FE0075F020800E75F010800575F0087D007E74
:100A0E00007F003392D530D503120AF3EC33401039
:100A1E00EF33FFEE33FEED33FDEC33FCD5F0ED227C
:0E0A2E00E5F0247EA2D513CC92E7CDCEFF22B8
:100A3C00EDD2E7CD33EC3392D524814006E4FFFEB2
:100A4C00FDFC22FCE4CFCECDCC24E0501174FF8011
:100A5C00EDC3CC13CCCD13CDCE13CECF13CF0470AE
:070A6C00F030D5DE020AF3B1
:100A7300E9D2E7C933E833F892D5EDD2E7CD33ECC9
:070A830033FC5002B2D52242
:100A8A00EC30E7100FBF000C0EBE00080DBD0004CD
:100A9A000BEB6014A2D5EB13FCED92E7FD2274FF79
:100AAA00FCFDFEFF22E480F8A2D574FF13FC7D80D2
:030ABA00E480EFE6
:03000000020D4DA1
:0C0D4D00787FE4F6D8FD758113020D6478
:100ABD00C2D5EC30E709B2D5E4C39DFDE49CFCEE54
:100ACD0030E715B2D5E4C39FFFE49EFE120B01C3C0
:100ADD00E49DFDE49CFC8003120B0130D507C3E4BB
:060AED009FFFE49EFE22C3
:0E0AF300C3E49FFFE49EFEE49DFDE49CFC2214
:100B0100BC000BBE0029EF8DF084FFADF022E4CCD8
:100B1100F875F008EF2FFFEE33FEEC33FCEE9DECA1
:100B2100984005FCEE9DFE0FD5F0E9E4CEFD22EDE7
:100B3100F8F5F0EE8420D21CFEADF075F008EF2F31
:100B4100FFED33FD4007985006D5F0F222C398FD22
:050B51000FD5F0EA22BF
:00000001FF
